{
  "contractName": "Delay",
  "abi": [
    {
      "inputs": [
        {
          "internalType": "uint64",
          "name": "_executionDelay",
          "type": "uint64"
        },
        {
          "internalType": "address[5]",
          "name": "_permissions",
          "type": "address[5]"
        }
      ],
      "payable": false,
      "stateMutability": "nonpayable",
      "type": "constructor"
    },
    {
      "anonymous": false,
      "inputs": [
        {
          "indexed": false,
          "internalType": "uint256",
          "name": "scriptId",
          "type": "uint256"
        }
      ],
      "name": "DelayedScriptStored",
      "type": "event"
    },
    {
      "anonymous": false,
      "inputs": [
        {
          "indexed": false,
          "internalType": "uint256",
          "name": "scriptId",
          "type": "uint256"
        },
        {
          "indexed": true,
          "internalType": "address",
          "name": "_contract",
          "type": "address"
        },
        {
          "indexed": false,
          "internalType": "bytes",
          "name": "_data",
          "type": "bytes"
        },
        {
          "indexed": false,
          "internalType": "uint256",
          "name": "_value",
          "type": "uint256"
        },
        {
          "indexed": false,
          "internalType": "bool",
          "name": "_success",
          "type": "bool"
        }
      ],
      "name": "ExecutedScript",
      "type": "event"
    },
    {
      "anonymous": false,
      "inputs": [
        {
          "indexed": false,
          "internalType": "uint256",
          "name": "scriptId",
          "type": "uint256"
        }
      ],
      "name": "ExecutionCancelled",
      "type": "event"
    },
    {
      "anonymous": false,
      "inputs": [
        {
          "indexed": false,
          "internalType": "uint64",
          "name": "executionDelay",
          "type": "uint64"
        }
      ],
      "name": "ExecutionDelaySet",
      "type": "event"
    },
    {
      "anonymous": false,
      "inputs": [
        {
          "indexed": false,
          "internalType": "uint256",
          "name": "scriptId",
          "type": "uint256"
        }
      ],
      "name": "ExecutionPaused",
      "type": "event"
    },
    {
      "anonymous": false,
      "inputs": [
        {
          "indexed": false,
          "internalType": "uint256",
          "name": "scriptId",
          "type": "uint256"
        }
      ],
      "name": "ExecutionResumed",
      "type": "event"
    },
    {
      "constant": true,
      "inputs": [],
      "name": "CANCEL_EXECUTION_ROLE",
      "outputs": [
        {
          "internalType": "bytes32",
          "name": "",
          "type": "bytes32"
        }
      ],
      "payable": false,
      "stateMutability": "view",
      "type": "function"
    },
    {
      "constant": true,
      "inputs": [],
      "name": "DELAY_EXECUTION_ROLE",
      "outputs": [
        {
          "internalType": "bytes32",
          "name": "",
          "type": "bytes32"
        }
      ],
      "payable": false,
      "stateMutability": "view",
      "type": "function"
    },
    {
      "constant": true,
      "inputs": [],
      "name": "PAUSE_EXECUTION_ROLE",
      "outputs": [
        {
          "internalType": "bytes32",
          "name": "",
          "type": "bytes32"
        }
      ],
      "payable": false,
      "stateMutability": "view",
      "type": "function"
    },
    {
      "constant": true,
      "inputs": [],
      "name": "RESUME_EXECUTION_ROLE",
      "outputs": [
        {
          "internalType": "bytes32",
          "name": "",
          "type": "bytes32"
        }
      ],
      "payable": false,
      "stateMutability": "view",
      "type": "function"
    },
    {
      "constant": true,
      "inputs": [],
      "name": "SET_DELAY_ROLE",
      "outputs": [
        {
          "internalType": "bytes32",
          "name": "",
          "type": "bytes32"
        }
      ],
      "payable": false,
      "stateMutability": "view",
      "type": "function"
    },
    {
      "constant": true,
      "inputs": [
        {
          "internalType": "uint256",
          "name": "",
          "type": "uint256"
        }
      ],
      "name": "delayedScripts",
      "outputs": [
        {
          "internalType": "uint64",
          "name": "executionTime",
          "type": "uint64"
        },
        {
          "internalType": "uint64",
          "name": "pausedAt",
          "type": "uint64"
        },
        {
          "internalType": "address",
          "name": "on",
          "type": "address"
        },
        {
          "internalType": "uint256",
          "name": "value",
          "type": "uint256"
        },
        {
          "internalType": "bytes",
          "name": "data",
          "type": "bytes"
        }
      ],
      "payable": false,
      "stateMutability": "view",
      "type": "function"
    },
    {
      "constant": true,
      "inputs": [],
      "name": "delayedScriptsNewIndex",
      "outputs": [
        {
          "internalType": "uint256",
          "name": "",
          "type": "uint256"
        }
      ],
      "payable": false,
      "stateMutability": "view",
      "type": "function"
    },
    {
      "constant": true,
      "inputs": [],
      "name": "executionDelay",
      "outputs": [
        {
          "internalType": "uint64",
          "name": "",
          "type": "uint64"
        }
      ],
      "payable": false,
      "stateMutability": "view",
      "type": "function"
    },
    {
      "constant": true,
      "inputs": [
        {
          "internalType": "bytes32",
          "name": "",
          "type": "bytes32"
        }
      ],
      "name": "permissions",
      "outputs": [
        {
          "internalType": "address",
          "name": "",
          "type": "address"
        }
      ],
      "payable": false,
      "stateMutability": "view",
      "type": "function"
    },
    {
      "constant": false,
      "inputs": [
        {
          "internalType": "uint64",
          "name": "_executionDelay",
          "type": "uint64"
        }
      ],
      "name": "setExecutionDelay",
      "outputs": [],
      "payable": false,
      "stateMutability": "nonpayable",
      "type": "function"
    },
    {
      "constant": false,
      "inputs": [
        {
          "internalType": "address",
          "name": "on",
          "type": "address"
        },
        {
          "internalType": "bytes",
          "name": "_callData",
          "type": "bytes"
        },
        {
          "internalType": "uint256",
          "name": "value",
          "type": "uint256"
        }
      ],
      "name": "delayExecution",
      "outputs": [
        {
          "internalType": "uint256",
          "name": "",
          "type": "uint256"
        }
      ],
      "payable": false,
      "stateMutability": "nonpayable",
      "type": "function"
    },
    {
      "constant": false,
      "inputs": [
        {
          "internalType": "uint256",
          "name": "_delayedScriptId",
          "type": "uint256"
        }
      ],
      "name": "pauseExecution",
      "outputs": [],
      "payable": false,
      "stateMutability": "nonpayable",
      "type": "function"
    },
    {
      "constant": false,
      "inputs": [
        {
          "internalType": "uint256",
          "name": "_delayedScriptId",
          "type": "uint256"
        }
      ],
      "name": "resumeExecution",
      "outputs": [],
      "payable": false,
      "stateMutability": "nonpayable",
      "type": "function"
    },
    {
      "constant": false,
      "inputs": [
        {
          "internalType": "uint256",
          "name": "_delayedScriptId",
          "type": "uint256"
        }
      ],
      "name": "cancelExecution",
      "outputs": [],
      "payable": false,
      "stateMutability": "nonpayable",
      "type": "function"
    },
    {
      "constant": false,
      "inputs": [
        {
          "internalType": "uint256",
          "name": "_delayedScriptId",
          "type": "uint256"
        }
      ],
      "name": "execute",
      "outputs": [
        {
          "internalType": "bool",
          "name": "success",
          "type": "bool"
        },
        {
          "internalType": "bytes",
          "name": "returnValue",
          "type": "bytes"
        }
      ],
      "payable": false,
      "stateMutability": "nonpayable",
      "type": "function"
    },
    {
      "constant": true,
      "inputs": [
        {
          "internalType": "uint256",
          "name": "_scriptId",
          "type": "uint256"
        }
      ],
      "name": "canExecute",
      "outputs": [
        {
          "internalType": "bool",
          "name": "",
          "type": "bool"
        }
      ],
      "payable": false,
      "stateMutability": "view",
      "type": "function"
    }
  ],
  "bytecode": "0x608060405260006001553480156200001657600080fd5b506040516200255838038062002558833981810160405260c08110156200003c57600080fd5b810190808051906020019092919091905050816000806101000a81548167ffffffffffffffff021916908367ffffffffffffffff160217905550806000600581106200008457fe5b60200201516003600060405180807f5345545f44454c41595f524f4c45000000000000000000000000000000000000815250600e0190506040518091039020815260200190815260200160002060006101000a81548173ffffffffffffffffffffffffffffffffffffffff021916908373ffffffffffffffffffffffffffffffffffffffff160217905550806001600581106200011d57fe5b60200201516003600060405180807f44454c41595f455845435554494f4e5f524f4c4500000000000000000000000081525060140190506040518091039020815260200190815260200160002060006101000a81548173ffffffffffffffffffffffffffffffffffffffff021916908373ffffffffffffffffffffffffffffffffffffffff16021790555080600260058110620001b657fe5b60200201516003600060405180807f50415553455f455845435554494f4e5f524f4c4500000000000000000000000081525060140190506040518091039020815260200190815260200160002060006101000a81548173ffffffffffffffffffffffffffffffffffffffff021916908373ffffffffffffffffffffffffffffffffffffffff160217905550806003600581106200024f57fe5b60200201516003600060405180807f524553554d455f455845435554494f4e5f524f4c45000000000000000000000081525060150190506040518091039020815260200190815260200160002060006101000a81548173ffffffffffffffffffffffffffffffffffffffff021916908373ffffffffffffffffffffffffffffffffffffffff16021790555080600460058110620002e857fe5b60200201516003600060405180807f43414e43454c5f455845435554494f4e5f524f4c45000000000000000000000081525060150190506040518091039020815260200190815260200160002060006101000a81548173ffffffffffffffffffffffffffffffffffffffff021916908373ffffffffffffffffffffffffffffffffffffffff16021790555050506121d380620003856000396000f3fe608060405234801561001057600080fd5b50600436106100ff5760003560e01c8063a75c626f11610097578063cc63604a11610066578063cc63604a146103a3578063f513c98a146103e9578063fb52235014610417578063fe0d94c11461052e576100ff565b8063a75c626f146102b1578063b4d2388f146102df578063b792097a1461034d578063c175541f1461036b576100ff565b80638b257989116100d35780638b2579891461021557806394be10a214610247578063a2d8a99714610265578063a6e8ef8914610293576100ff565b8062df7b231461010457806316025d97146101bb5780633df476fe146101d957806385cd7331146101f7575b600080fd5b6101a56004803603606081101561011a57600080fd5b81019080803573ffffffffffffffffffffffffffffffffffffffff1690602001909291908035906020019064010000000081111561015757600080fd5b82018360208201111561016957600080fd5b8035906020019184600183028401116401000000008311171561018b57600080fd5b9091929391929390803590602001909291905050506105e0565b6040518082815260200191505060405180910390f35b6101c3610746565b6040518082815260200191505060405180910390f35b6101e161077f565b6040518082815260200191505060405180910390f35b6101ff6107b8565b6040518082815260200191505060405180910390f35b61021d6107f1565b604051808267ffffffffffffffff1667ffffffffffffffff16815260200191505060405180910390f35b61024f61080a565b6040518082815260200191505060405180910390f35b6102916004803603602081101561027b57600080fd5b8101908080359060200190929190505050610843565b005b61029b610b2b565b6040518082815260200191505060405180910390f35b6102dd600480360360208110156102c757600080fd5b8101908080359060200190929190505050610b64565b005b61030b600480360360208110156102f557600080fd5b8101908080359060200190929190505050610e73565b604051808273ffffffffffffffffffffffffffffffffffffffff1673ffffffffffffffffffffffffffffffffffffffff16815260200191505060405180910390f35b610355610ea6565b6040518082815260200191505060405180910390f35b6103a16004803603602081101561038157600080fd5b81019080803567ffffffffffffffff169060200190929190505050610eac565b005b6103cf600480360360208110156103b957600080fd5b8101908080359060200190929190505050611042565b604051808215151515815260200191505060405180910390f35b610415600480360360208110156103ff57600080fd5b81019080803590602001909291905050506110b0565b005b6104436004803603602081101561042d57600080fd5b8101908080359060200190929190505050611439565b604051808667ffffffffffffffff1667ffffffffffffffff1681526020018567ffffffffffffffff1667ffffffffffffffff1681526020018473ffffffffffffffffffffffffffffffffffffffff1673ffffffffffffffffffffffffffffffffffffffff16815260200183815260200180602001828103825283818151815260200191508051906020019080838360005b838110156104ef5780820151818401526020810190506104d4565b50505050905090810190601f16801561051c5780820380516001836020036101000a031916815260200191505b50965050505050505060405180910390f35b61055a6004803603602081101561054457600080fd5b810190808035906020019092919050505061154f565b604051808315151515815260200180602001828103825283818151815260200191508051906020019080838360005b838110156105a4578082015181840152602081019050610589565b50505050905090810190601f1680156105d15780820380516001836020036101000a031916815260200191505b50935050505060405180910390f35b600060405180807f44454c41595f455845435554494f4e5f524f4c45000000000000000000000000815250601401905060405180910390203373ffffffffffffffffffffffffffffffffffffffff166003600083815260200190815260200160002060009054906101000a900473ffffffffffffffffffffffffffffffffffffffff1673ffffffffffffffffffffffffffffffffffffffff16146106ec576040517f08c379a00000000000000000000000000000000000000000000000000000000081526004018080602001828103825260198152602001807f6d73672073656e646572206e6f7420617574686f72697a65640000000000000081525060200191505060405180910390fd5b61073b8686868080601f016020809104026020016040519081016040528093929190818152602001838380828437600081840152601f19601f82011690508083019250505050505050856119f3565b915050949350505050565b60405180807f5345545f44454c41595f524f4c45000000000000000000000000000000000000815250600e019050604051809103902081565b60405180807f44454c41595f455845435554494f4e5f524f4c450000000000000000000000008152506014019050604051809103902081565b60405180807f524553554d455f455845435554494f4e5f524f4c4500000000000000000000008152506015019050604051809103902081565b6000809054906101000a900467ffffffffffffffff1681565b60405180807f43414e43454c5f455845435554494f4e5f524f4c4500000000000000000000008152506015019050604051809103902081565b8060006002600083815260200190815260200160002060000160009054906101000a900467ffffffffffffffff1667ffffffffffffffff1614156040518060400160405280600f81526020017f44454c41595f4e4f5f534352495054000000000000000000000000000000000081525090610959576040517f08c379a00000000000000000000000000000000000000000000000000000000081526004018080602001828103825283818151815260200191508051906020019080838360005b8381101561091e578082015181840152602081019050610903565b50505050905090810190601f16801561094b5780820380516001836020036101000a031916815260200191505b509250505060405180910390fd5b5060405180807f43414e43454c5f455845435554494f4e5f524f4c450000000000000000000000815250601501905060405180910390203373ffffffffffffffffffffffffffffffffffffffff166003600083815260200190815260200160002060009054906101000a900473ffffffffffffffffffffffffffffffffffffffff1673ffffffffffffffffffffffffffffffffffffffff1614610a64576040517f08c379a00000000000000000000000000000000000000000000000000000000081526004018080602001828103825260198152602001807f6d73672073656e646572206e6f7420617574686f72697a65640000000000000081525060200191505060405180910390fd5b60026000848152602001908152602001600020600080820160006101000a81549067ffffffffffffffff02191690556000820160086101000a81549067ffffffffffffffff02191690556001820160006101000a81549073ffffffffffffffffffffffffffffffffffffffff02191690556002820160009055600382016000610aed9190612058565b50507f2a6bef66de603fc0ec07223576486bd905cd9bb6e05364286d9a5cd1be046ae6836040518082815260200191505060405180910390a1505050565b60405180807f50415553455f455845435554494f4e5f524f4c450000000000000000000000008152506014019050604051809103902081565b60405180807f524553554d455f455845435554494f4e5f524f4c450000000000000000000000815250601501905060405180910390203373ffffffffffffffffffffffffffffffffffffffff166003600083815260200190815260200160002060009054906101000a900473ffffffffffffffffffffffffffffffffffffffff1673ffffffffffffffffffffffffffffffffffffffff1614610c6e576040517f08c379a00000000000000000000000000000000000000000000000000000000081526004018080602001828103825260198152602001807f6d73672073656e646572206e6f7420617574686f72697a65640000000000000081525060200191505060405180910390fd5b610c7782611bbb565b6040518060400160405280601481526020017f44454c41595f43414e5f4e4f545f524553554d4500000000000000000000000081525090610d53576040517f08c379a00000000000000000000000000000000000000000000000000000000081526004018080602001828103825283818151815260200191508051906020019080838360005b83811015610d18578082015181840152602081019050610cfd565b50505050905090810190601f168015610d455780820380516001836020036101000a031916815260200191505b509250505060405180910390fd5b5060006002600084815260200190815260200160002090506000610da98260000160089054906101000a900467ffffffffffffffff16610d91611d15565b67ffffffffffffffff16611d2c90919063ffffffff16565b9050610de0818360000160009054906101000a900467ffffffffffffffff1667ffffffffffffffff16611e3490919063ffffffff16565b8260000160006101000a81548167ffffffffffffffff021916908367ffffffffffffffff16021790555060008260000160086101000a81548167ffffffffffffffff021916908367ffffffffffffffff1602179055507f8e5cdf7626ae4577d2994bb0fb6c5a94c8efcd110ca927df3ba25613dc27f954846040518082815260200191505060405180910390a150505050565b60036020528060005260406000206000915054906101000a900473ffffffffffffffffffffffffffffffffffffffff1681565b60015481565b60405180807f5345545f44454c41595f524f4c45000000000000000000000000000000000000815250600e01905060405180910390203373ffffffffffffffffffffffffffffffffffffffff166003600083815260200190815260200160002060009054906101000a900473ffffffffffffffffffffffffffffffffffffffff1673ffffffffffffffffffffffffffffffffffffffff1614610fb6576040517f08c379a00000000000000000000000000000000000000000000000000000000081526004018080602001828103825260198152602001807f6d73672073656e646572206e6f7420617574686f72697a65640000000000000081525060200191505060405180910390fd5b816000806101000a81548167ffffffffffffffff021916908367ffffffffffffffff1602179055507fe760fe1fa9b1c075b3a99114502282707e7050c0d62634f993d7419f5139d6576000809054906101000a900467ffffffffffffffff16604051808267ffffffffffffffff1667ffffffffffffffff16815260200191505060405180910390a15050565b6000806002600084815260200190815260200160002060000160009054906101000a900467ffffffffffffffff1667ffffffffffffffff16611082611d15565b67ffffffffffffffff16119050600061109a84611bbb565b1590508180156110a75750805b92505050919050565b60405180807f50415553455f455845435554494f4e5f524f4c45000000000000000000000000815250601401905060405180910390203373ffffffffffffffffffffffffffffffffffffffff166003600083815260200190815260200160002060009054906101000a900473ffffffffffffffffffffffffffffffffffffffff1673ffffffffffffffffffffffffffffffffffffffff16146111ba576040517f08c379a00000000000000000000000000000000000000000000000000000000081526004018080602001828103825260198152602001807f6d73672073656e646572206e6f7420617574686f72697a65640000000000000081525060200191505060405180910390fd5b60006002600084815260200190815260200160002090506111da83611bbb565b156040518060400160405280601381526020017f44454c41595f43414e5f4e4f545f504155534500000000000000000000000000815250906112b7576040517f08c379a00000000000000000000000000000000000000000000000000000000081526004018080602001828103825283818151815260200191508051906020019080838360005b8381101561127c578082015181840152602081019050611261565b50505050905090810190601f1680156112a95780820380516001836020036101000a031916815260200191505b509250505060405180910390fd5b508060000160009054906101000a900467ffffffffffffffff1667ffffffffffffffff166112e3611d15565b67ffffffffffffffff16106040518060400160405280601d81526020017f44454c41595f5343524950545f455845435554494f4e5f504153534544000000815250906113ca576040517f08c379a00000000000000000000000000000000000000000000000000000000081526004018080602001828103825283818151815260200191508051906020019080838360005b8381101561138f578082015181840152602081019050611374565b50505050905090810190601f1680156113bc5780820380516001836020036101000a031916815260200191505b509250505060405180910390fd5b506113d3611d15565b8160000160086101000a81548167ffffffffffffffff021916908367ffffffffffffffff1602179055507f530967c73a73486877cad662c33d773448cb2e8836bbd70d69963279e32478be836040518082815260200191505060405180910390a1505050565b60026020528060005260406000206000915090508060000160009054906101000a900467ffffffffffffffff16908060000160089054906101000a900467ffffffffffffffff16908060010160009054906101000a900473ffffffffffffffffffffffffffffffffffffffff1690806002015490806003018054600181600116156101000203166002900480601f0160208091040260200160405190810160405280929190818152602001828054600181600116156101000203166002900480156115455780601f1061151a57610100808354040283529160200191611545565b820191906000526020600020905b81548152906001019060200180831161152857829003601f168201915b5050505050905085565b6000606061155c83611042565b6040518060400160405280601581526020017f44454c41595f43414e5f4e4f545f45584543555445000000000000000000000081525090611638576040517f08c379a00000000000000000000000000000000000000000000000000000000081526004018080602001828103825283818151815260200191508051906020019080838360005b838110156115fd5780820151818401526020810190506115e2565b50505050905090810190601f16801561162a5780820380516001836020036101000a031916815260200191505b509250505060405180910390fd5b506116416120a0565b600260008581526020019081526020016000206040518060a00160405290816000820160009054906101000a900467ffffffffffffffff1667ffffffffffffffff1667ffffffffffffffff1681526020016000820160089054906101000a900467ffffffffffffffff1667ffffffffffffffff1667ffffffffffffffff1681526020016001820160009054906101000a900473ffffffffffffffffffffffffffffffffffffffff1673ffffffffffffffffffffffffffffffffffffffff1673ffffffffffffffffffffffffffffffffffffffff16815260200160028201548152602001600382018054600181600116156101000203166002900480601f0160208091040260200160405190810160405280929190818152602001828054600181600116156101000203166002900480156117bc5780601f10611791576101008083540402835291602001916117bc565b820191906000526020600020905b81548152906001019060200180831161179f57829003601f168201915b505050505081525050905060026000858152602001908152602001600020600080820160006101000a81549067ffffffffffffffff02191690556000820160086101000a81549067ffffffffffffffff02191690556001820160006101000a81549073ffffffffffffffffffffffffffffffffffffffff021916905560028201600090556003820160006118509190612058565b5050806040015173ffffffffffffffffffffffffffffffffffffffff1681608001516040518082805190602001908083835b602083106118a55780518252602082019150602081019050602083039250611882565b6001836020036101000a0380198251168184511680821785525050505050509050019150506000604051808303816000865af19150503d8060008114611907576040519150601f19603f3d011682016040523d82523d6000602084013e61190c565b606091505b508093508194505050806040015173ffffffffffffffffffffffffffffffffffffffff167ffa584214a5ef26bce9fa1e491c932f19fe86c98a892d09cf94d7a427cc2bf19a858360800151600087604051808581526020018060200184815260200183151515158152602001828103825285818151815260200191508051906020019080838360005b838110156119b0578082015181840152602081019050611995565b50505050905090810190601f1680156119dd5780820380516001836020036101000a031916815260200191505b509550505050505060405180910390a250915091565b60008060015490506001600081548092919060010191905055506040518060a00160405280611a516000809054906101000a900467ffffffffffffffff16611a39611d15565b67ffffffffffffffff16611e3490919063ffffffff16565b67ffffffffffffffff168152602001600067ffffffffffffffff1681526020018673ffffffffffffffffffffffffffffffffffffffff168152602001848152602001858152506002600083815260200190815260200160002060008201518160000160006101000a81548167ffffffffffffffff021916908367ffffffffffffffff16021790555060208201518160000160086101000a81548167ffffffffffffffff021916908367ffffffffffffffff16021790555060408201518160010160006101000a81548173ffffffffffffffffffffffffffffffffffffffff021916908373ffffffffffffffffffffffffffffffffffffffff160217905550606082015181600201556080820151816003019080519060200190611b759291906120f9565b509050507f1136c4e316430898135b65f16a0b67a90250220cda1e2903de655e54833b3fd7816040518082815260200191505060405180910390a1809150509392505050565b60008160006002600083815260200190815260200160002060000160009054906101000a900467ffffffffffffffff1667ffffffffffffffff1614156040518060400160405280600f81526020017f44454c41595f4e4f5f534352495054000000000000000000000000000000000081525090611cd3576040517f08c379a00000000000000000000000000000000000000000000000000000000081526004018080602001828103825283818151815260200191508051906020019080838360005b83811015611c98578082015181840152602081019050611c7d565b50505050905090810190601f168015611cc55780820380516001836020036101000a031916815260200191505b509250505060405180910390fd5b5060006002600085815260200190815260200160002060000160089054906101000a900467ffffffffffffffff1667ffffffffffffffff161415915050919050565b6000611d27611d22611f3b565b611f43565b905090565b60008267ffffffffffffffff168267ffffffffffffffff1611156040518060400160405280601481526020017f4d41544836345f5355425f554e444552464c4f5700000000000000000000000081525090611e22576040517f08c379a00000000000000000000000000000000000000000000000000000000081526004018080602001828103825283818151815260200191508051906020019080838360005b83811015611de7578082015181840152602081019050611dcc565b50505050905090810190601f168015611e145780820380516001836020036101000a031916815260200191505b509250505060405180910390fd5b50600082840390508091505092915050565b60008082840190508367ffffffffffffffff168167ffffffffffffffff1610156040518060400160405280601381526020017f4d41544836345f4144445f4f564552464c4f570000000000000000000000000081525090611f30576040517f08c379a00000000000000000000000000000000000000000000000000000000081526004018080602001828103825283818151815260200191508051906020019080838360005b83811015611ef5578082015181840152602081019050611eda565b50505050905090810190601f168015611f225780820380516001836020036101000a031916815260200191505b509250505060405180910390fd5b508091505092915050565b600042905090565b60007fffffffffffffffffffffffffffffffffffffffffffffffffffffffffffffffff67ffffffffffffffff168211156040518060400160405280601581526020017f55494e5436345f4e554d4245525f544f4f5f42494700000000000000000000008152509061204f576040517f08c379a00000000000000000000000000000000000000000000000000000000081526004018080602001828103825283818151815260200191508051906020019080838360005b83811015612014578082015181840152602081019050611ff9565b50505050905090810190601f1680156120415780820380516001836020036101000a031916815260200191505b509250505060405180910390fd5b50819050919050565b50805460018160011615610100020316600290046000825580601f1061207e575061209d565b601f01602090049060005260206000209081019061209c9190612179565b5b50565b6040518060a00160405280600067ffffffffffffffff168152602001600067ffffffffffffffff168152602001600073ffffffffffffffffffffffffffffffffffffffff16815260200160008152602001606081525090565b828054600181600116156101000203166002900490600052602060002090601f016020900481019282601f1061213a57805160ff1916838001178555612168565b82800160010185558215612168579182015b8281111561216757825182559160200191906001019061214c565b5b5090506121759190612179565b5090565b61219b91905b8082111561219757600081600090555060010161217f565b5090565b9056fea265627a7a7231582036cabfd44e0106abd0096c05945d577a0014c90404003baf29d4536c1b39e42564736f6c63430005100032",
  "source": "pragma solidity ^0.5.0;\n\nimport '../support/SafeMath64.sol';\nimport '../support/TimeHelpers.sol';\n\ncontract Delay is TimeHelpers {\n    using SafeMath64 for uint64;\n\n    bytes32 public constant SET_DELAY_ROLE = keccak256(\"SET_DELAY_ROLE\");\n    bytes32 public constant DELAY_EXECUTION_ROLE = keccak256(\"DELAY_EXECUTION_ROLE\");\n    bytes32 public constant PAUSE_EXECUTION_ROLE = keccak256(\"PAUSE_EXECUTION_ROLE\");\n    bytes32 public constant RESUME_EXECUTION_ROLE = keccak256(\"RESUME_EXECUTION_ROLE\");\n    bytes32 public constant CANCEL_EXECUTION_ROLE = keccak256(\"CANCEL_EXECUTION_ROLE\");\n\n    string private constant ERROR_NO_SCRIPT = \"DELAY_NO_SCRIPT\";\n    string private constant ERROR_CAN_NOT_EXECUTE = \"DELAY_CAN_NOT_EXECUTE\";\n    string private constant ERROR_CAN_NOT_PAUSE = \"DELAY_CAN_NOT_PAUSE\";\n    string private constant ERROR_SCRIPT_EXECUTION_PASSED = \"DELAY_SCRIPT_EXECUTION_PASSED\";\n    string private constant ERROR_CAN_NOT_RESUME = \"DELAY_CAN_NOT_RESUME\";\n    string private constant ERROR_CAN_NOT_FORWARD = \"DELAY_CAN_NOT_FORWARD\";\n\n    struct DelayedScript {\n        uint64 executionTime;\n        uint64 pausedAt;\n        address on;\n        uint256 value;\n        bytes data;\n    }\n\n    uint64 public executionDelay;\n    uint256 public delayedScriptsNewIndex = 0;\n    mapping(uint256 => DelayedScript) public delayedScripts;\n    mapping(bytes32 => address) public permissions;\n\n    event DelayedScriptStored(uint256 scriptId);\n    event ExecutionDelaySet(uint64 executionDelay);\n    event ExecutedScript(uint256 scriptId, address indexed _contract, bytes _data, uint _value, bool _success);\n    event ExecutionPaused(uint256 scriptId);\n    event ExecutionResumed(uint256 scriptId);\n    event ExecutionCancelled(uint256 scriptId);\n\n    modifier scriptExists(uint256 _scriptId) {\n        require(delayedScripts[_scriptId].executionTime != 0, ERROR_NO_SCRIPT);\n        _;\n    }\n\n    modifier auth(bytes32 role) {\n        require(permissions[role] == msg.sender, \"msg sender not authorized\");\n        _;\n    }\n\n    /**\n    * @notice Initialize the Delay app\n    * @param _executionDelay The delay in seconds a user will have to wait before executing a script\n    */\n     constructor(uint64 _executionDelay, address[5] memory _permissions) public {\n        executionDelay = _executionDelay;\n        permissions[SET_DELAY_ROLE] = _permissions[0];\n        permissions[DELAY_EXECUTION_ROLE] = _permissions[1];\n        permissions[PAUSE_EXECUTION_ROLE] = _permissions[2];\n        permissions[RESUME_EXECUTION_ROLE] = _permissions[3];\n        permissions[CANCEL_EXECUTION_ROLE] = _permissions[4];\n    }\n    \n    /**\n    * @notice Set the execution delay to `_executionDelay`\n    * @param _executionDelay The new execution delay\n    */\n    function setExecutionDelay(uint64 _executionDelay) external auth(SET_DELAY_ROLE) {\n        executionDelay = _executionDelay;\n\n        emit ExecutionDelaySet(executionDelay);\n    }\n\n    /**\n    * @notice Delays execution for `@transformTime(self.executionDelay(): uint)`\n    */\n    function delayExecution(address on, bytes calldata _callData, uint256 value) external auth(DELAY_EXECUTION_ROLE) returns (uint256) {\n        return _delayExecution(on, _callData, value);\n    }\n\n    /**\n    * @notice Pause the script execution with ID `_delayedScriptId`\n    * @param _delayedScriptId The ID of the script execution to pause\n    */\n    function pauseExecution(uint256 _delayedScriptId) external auth(PAUSE_EXECUTION_ROLE) {\n        DelayedScript storage delayedScript = delayedScripts[_delayedScriptId];\n        require(!_isExecutionPaused(_delayedScriptId), ERROR_CAN_NOT_PAUSE);\n        require(getTimestamp64() < delayedScript.executionTime, ERROR_SCRIPT_EXECUTION_PASSED);\n\n        delayedScript.pausedAt = getTimestamp64();\n\n        emit ExecutionPaused(_delayedScriptId);\n    }\n\n    /**\n    * @notice Resume a paused script execution with ID `_delayedScriptId`\n    * @param _delayedScriptId The ID of the script execution to resume\n    */\n    function resumeExecution(uint256 _delayedScriptId) external auth(RESUME_EXECUTION_ROLE) {\n        require(_isExecutionPaused(_delayedScriptId), ERROR_CAN_NOT_RESUME);\n        DelayedScript storage delayedScript = delayedScripts[_delayedScriptId];\n\n        uint64 timePaused = getTimestamp64().sub(delayedScript.pausedAt);\n        delayedScript.executionTime = delayedScript.executionTime.add(timePaused);\n        delayedScript.pausedAt = 0;\n\n        emit ExecutionResumed(_delayedScriptId);\n    }\n\n    /**\n    * @notice Cancel script execution with ID `_delayedScriptId`\n    * @param _delayedScriptId The ID of the script execution to cancel\n    */\n    function cancelExecution(uint256 _delayedScriptId) external scriptExists(_delayedScriptId) auth(CANCEL_EXECUTION_ROLE) {\n        delete delayedScripts[_delayedScriptId];\n\n        emit ExecutionCancelled(_delayedScriptId);\n    }\n\n    /**\n    * @notice Execute the script with ID `_delayedScriptId`\n    * @param _delayedScriptId The ID of the script to execute\n    */\n    function execute(uint256 _delayedScriptId) external returns(bool success, bytes memory returnValue) {\n        require(canExecute(_delayedScriptId), ERROR_CAN_NOT_EXECUTE);\n\n        DelayedScript memory delayedScript = delayedScripts[_delayedScriptId];\n        delete delayedScripts[_delayedScriptId];\n\n        (success, returnValue) = delayedScript.on.call(delayedScript.data);\n\n        emit ExecutedScript(_delayedScriptId, delayedScript.on, delayedScript.data, 0, success);\n    }\n\n    /**\n    * @notice Return whether a script with ID #`_scriptId` can be executed\n    * @param _scriptId The ID of the script to execute\n    */\n    function canExecute(uint256 _scriptId) public view returns (bool) {\n        bool withinExecutionWindow = getTimestamp64() > delayedScripts[_scriptId].executionTime;\n        bool isUnpaused = !_isExecutionPaused(_scriptId);\n\n        return withinExecutionWindow && isUnpaused;\n    }\n\n    function _isExecutionPaused(uint256 _scriptId) internal view scriptExists(_scriptId) returns (bool) {\n        return delayedScripts[_scriptId].pausedAt != 0;\n    }\n\n    function _delayExecution(address on, bytes memory _callData, uint256 value) internal returns (uint256) {\n        uint256 delayedScriptIndex = delayedScriptsNewIndex;\n        delayedScriptsNewIndex++;\n\n        delayedScripts[delayedScriptIndex] = DelayedScript(getTimestamp64().add(executionDelay), 0, on, value, _callData);\n\n        emit DelayedScriptStored(delayedScriptIndex);\n\n        return delayedScriptIndex;\n    }\n\n}\n",
  "sourcePath": "/home/pepo/pr/reasonable/reasonable/contracts/core/Delay.sol",
  "compiler": {
    "name": "solc",
    "version": "0.5.16+commit.9c3226ce.Emscripten.clang"
  },
  "schemaVersion": "3.3.2",
  "updatedAt": "2020-12-06T21:45:37.031Z",
  "networkType": "ethereum",
  "devdoc": {
    "methods": {
      "canExecute(uint256)": {
        "params": {
          "_scriptId": "The ID of the script to execute"
        }
      },
      "cancelExecution(uint256)": {
        "params": {
          "_delayedScriptId": "The ID of the script execution to cancel"
        }
      },
      "constructor": {
        "params": {
          "_executionDelay": "The delay in seconds a user will have to wait before executing a script"
        }
      },
      "execute(uint256)": {
        "params": {
          "_delayedScriptId": "The ID of the script to execute"
        }
      },
      "pauseExecution(uint256)": {
        "params": {
          "_delayedScriptId": "The ID of the script execution to pause"
        }
      },
      "resumeExecution(uint256)": {
        "params": {
          "_delayedScriptId": "The ID of the script execution to resume"
        }
      },
      "setExecutionDelay(uint64)": {
        "params": {
          "_executionDelay": "The new execution delay"
        }
      }
    }
  },
  "userdoc": {
    "methods": {
      "canExecute(uint256)": {
        "notice": "Return whether a script with ID #`_scriptId` can be executed"
      },
      "cancelExecution(uint256)": {
        "notice": "Cancel script execution with ID `_delayedScriptId`"
      },
      "constructor": "Initialize the Delay app",
      "delayExecution(address,bytes,uint256)": {
        "notice": "Delays execution for `@transformTime(self.executionDelay(): uint)`"
      },
      "execute(uint256)": {
        "notice": "Execute the script with ID `_delayedScriptId`"
      },
      "pauseExecution(uint256)": {
        "notice": "Pause the script execution with ID `_delayedScriptId`"
      },
      "resumeExecution(uint256)": {
        "notice": "Resume a paused script execution with ID `_delayedScriptId`"
      },
      "setExecutionDelay(uint64)": {
        "notice": "Set the execution delay to `_executionDelay`"
      }
    }
  }
}