{
  "contractName": "Signal",
  "abi": [
    {
      "inputs": [],
      "payable": false,
      "stateMutability": "nonpayable",
      "type": "constructor"
    },
    {
      "anonymous": false,
      "inputs": [
        {
          "indexed": true,
          "internalType": "address",
          "name": "source",
          "type": "address"
        },
        {
          "indexed": true,
          "internalType": "bytes32",
          "name": "topic",
          "type": "bytes32"
        },
        {
          "indexed": false,
          "internalType": "string",
          "name": "value",
          "type": "string"
        }
      ],
      "name": "Signal",
      "type": "event"
    },
    {
      "constant": false,
      "inputs": [
        {
          "internalType": "bytes32",
          "name": "topic",
          "type": "bytes32"
        },
        {
          "internalType": "string",
          "name": "value",
          "type": "string"
        }
      ],
      "name": "signal",
      "outputs": [],
      "payable": false,
      "stateMutability": "nonpayable",
      "type": "function"
    }
  ],
  "bytecode": "0x608060405234801561001057600080fd5b506101e2806100206000396000f3fe608060405234801561001057600080fd5b506004361061002b5760003560e01c8063c620b4ac14610030575b600080fd5b6100f36004803603604081101561004657600080fd5b81019080803590602001909291908035906020019064010000000081111561006d57600080fd5b82018360208201111561007f57600080fd5b803590602001918460018302840111640100000000831117156100a157600080fd5b91908080601f016020809104026020016040519081016040528093929190818152602001838380828437600081840152601f19601f8201169050808301925050505050505091929192905050506100f5565b005b813373ffffffffffffffffffffffffffffffffffffffff167f1b9bf817e88687cc05cae23f2bec91a647dacbf0fe4bcc8b70fe913201fc78ad836040518080602001828103825283818151815260200191508051906020019080838360005b8381101561016f578082015181840152602081019050610154565b50505050905090810190601f16801561019c5780820380516001836020036101000a031916815260200191505b509250505060405180910390a3505056fea265627a7a723158209b2feba68a8b1339a9bb6da9ea028496cb3743cd7db46cbce4a505024b3a826564736f6c63430005100032",
  "source": "pragma solidity >=0.4.25 <0.7.0;\n\ncontract Signal {\n    event Signal(address indexed source, bytes32 indexed topic, string value);\n\n    constructor() public {}\n\n    function signal(bytes32 topic, string memory value) public {\n        emit Signal(msg.sender, topic, value);\n    }\n}\n",
  "sourcePath": "/home/pepo/pr/dxdao/signaling-contract/contracts/Signal.sol",
  "compiler": {
    "name": "solc",
    "version": "0.5.16+commit.9c3226ce.Emscripten.clang"
  },
  "schemaVersion": "3.2.5",
  "updatedAt": "2020-09-22T10:36:51.443Z",
  "networkType": "ethereum",
  "devdoc": {
    "methods": {}
  },
  "userdoc": {
    "methods": {}
  }
}